:020000040800F2
:100000000000022025070008A1030008A303000840
:10001000A5030008A7030008A903000800000000CA
:10002000000000000000000000000000AB0300081A
:10003000AD03000800000000AF030008B103000892
:1000400075070008750700087507000875070008A0
:100050007507000875070008750700087507000890
:100060007507000875070008750700087507000880
:100070007507000875070008750700087507000870
:1000800075070008750700087507000800000000E4
:1000900000000000000000000000000075070008DC
:1000A0007507000875070008750700087507000840
:1000B0007507000875070008750700087507000830
:1000C0007507000875070008750700087507000820
:1000D0007507000875070008750700080000000094
:1000E0007507000875070008750700080000000084
:1000F000000000000000000000000000750700087C
:100100000000000075070008750700087507000863
:1001100000000000000000000000000000000000DF
:1001200075070008750700087507000875070008BF
:10013000750700080000000000000000000000003B
:10014000000000000000000000000000750700082B
:10015000750700087507000875070008750700088F
:100160007507000875070008000000000000000087
:10017000000000000000000000000000000000007F
:1001800000000000750700080000000000000000EB
:0801900075070008750700085F
:1001980010B5054C237833B9044B13B10448AFF3B9
:1001A80000800123237010BD100000200000000013
:1001B800C007000808B5034B1BB103490348AFF358
:1001C800008008BD0000000014000020C0070008DF
:1001D8001A4B1A6C42F080521A641A6842F4803240
:1001E8001A60164B1B6813F4003FFAD0134B9A6839
:1001F80022F010029A609A6842F480529A609A68D3
:1002080022F400529A600E4A5A601A6842F08072CC
:100218001A600A4B1B6813F0007FFAD0074A9368EC
:1002280043F002039360054B9B6813F0080FFAD064
:10023800024A536C43F480435364704700380240C9
:100248000419420030B589B000240394049405943D
:10025800069407940194134B1A6B42F080021A63B8
:100268001A6B02F080020192019A02941A6B42F012
:1002780001021A631B6B03F001030293029B0A4DF0
:1002880022462021284600F08FF9202303930123DA
:1002980004930594069403A9284600F0A5F809B02C
:1002A80030BD00BF00380240000002400B4B1B6805
:1002B80010225A6000229A6005221A6006E0074B55
:1002C8001B681B6813F4803FF9D001380028F6D169
:1002D800024B1B6800221A60704700BF0000002014
:1002E80010B504E04FF47A70FFF7E0FF2046441E93
:1002F8000028F7D110BD000008B500F0DFF9FFF7BE
:1003080067FFFFF79FFF214A136B43F00103136355
:100318001F4B196841F480611960596821F0200168
:100328005960996841F400619960D96821F4406185
:10033800D960136B43F004031363164B1A6822F059
:1003480040621A605A6822F400525A609A6842F071
:1003580000629A60DA6842F00062DA601B6903F4AE
:100368000053012BCFD00A4C636943F0200363612B
:100378004FF47A70FFF7B4FF636923F020036361D9
:100388004FF47A70FFF7ACFFBDE700BF00380240BA
:100398000000024000080240FEE7FEE7FEE7FEE735
:1003A800FEE770477047704708B500F0A1F908BD2F
:1003B80082B0002100910B4B5A6C42F480425A647F
:1003C8005A6C02F480420092009A01911A6C42F031
:1003D80080521A641B6C03F080530193019B02B096
:1003E800704700BF0038024000230F2B00F2D28074
:1003F80070B582B060E085685E000324B44025EAE9
:100408000405CC68B4402C438460456825EA02059D
:100418004C68C4F300129A402A4342605AE0DC0850
:10042800083450F8246003F0070295000F22AA4010
:1004380026EA020E0A69AA4042EA0E0240F824207F
:100448005CE0042200E0002202FA0EF22A430234A1
:10045800514D45F82420514A94686FEA0C0224EA69
:100468000C054E6816F4801F01D04CEA04054B4C6D
:10047800A560E46802EA04054E6816F4001F01D07E
:100488004CEA0405454CE560646802EA04054E68D8
:1004980016F4003F01D04CEA0405404C656024681E
:1004A80022404D6815F4803F01D04CEA04023B4CD1
:1004B800226001330F2B6BD801229A400C6804EAA2
:1004C800020C32EA0404F4D14C6804F00304013C41
:1004D800012C90D94A6802F00302032A09D0C468A3
:1004E8005D000322AA4024EA02048A68AA40224343
:1004F800C2604A6802F00302022A90D004684FEAF8
:10050800430E032202FA0EF224EA02044A6802F0B9
:10051800030202FA0EF2224302604A6812F4403FD4
:10052800C7D0002201921E4A546C44F4804454649B
:10053800526C02F480420192019A9C08A51C164A4A
:1005480052F8255003F003024FEA820E0F2202FAF6
:100558000EF225EA0205134A90423FF474AF02F501
:10056800806290420ED002F5806290420CD002F573
:10057800806290420AD002F5806290423FF461AFF7
:10058800072261E701225FE702225DE703225BE7BA
:1005980002B070BD704700BF00380140003C014008
:1005A80000380240000002400AB181617047090426
:1005B80081617047074AD36823F4E0631B041B0C6E
:1005C800000200F4E060034343F0BF6343F40033E8
:1005D800D360704700ED00E000B5194BDB68C3F34A
:1005E8000223C3F1070CBCF1040F28BF4FF0040C21
:1005F80003F1040EBEF1060F18D9033B4FF0FF3E7E
:100608000EFA0CFC21EA0C0199400EFA03F322EAD7
:100618000303194300280BDB0901C9B200F160404C
:1006280000F5614080F800135DF804FB0023E5E75E
:1006380000F00F000901C9B2024B1954F4E700BFDA
:1006480000ED00E014ED00E00138B0F1807F0BD23E
:100658004FF0E0235861054AF02182F8231000206A
:10066800986107221A6170470120704700ED00E089
:1006780010B504460E4B18784FF47A73B3FBF0F3B9
:100688000C4A1068B0FBF3F0FFF7DEFF68B90F2CD7
:1006980001D901200AE0002221464FF0FF30FFF780
:1006A8009BFF054B1C60002000E0012010BD00BF2F
:1006B800040000200C0000200800002008B50B4BA7
:1006C8001A6842F400721A601A6842F480621A606A
:1006D8001A6842F480721A600320FFF76BFF0F203C
:1006E800FFF7C6FFFFF764FE002008BD003C02408C
:1006F800034A1168034B1B780B441360704700BF13
:100708002C00002004000020034AD2F8883043F46B
:100718007003C2F88830704700ED00E0DFF834D08D
:100728000D480E490E4A002302E0D458C450043341
:10073800C4188C42F9D30B4A0B4C002301E0136018
:100748000432A242FBD3FFF7DFFF00F011F8FFF7F6
:10075800D3FD704700000220000000201000002098
:10076800E00700081000002030000020FEE700002D
:1007780070B50D4D0D4C641BA4100026A64209D17E
:100788000B4D0C4C00F018F8641BA4100026A64270
:1007980005D170BD55F8043B98470136EEE755F88A
:1007A800043B98470136F2E7D8070008D807000845
:1007B800D8070008DC070008F8B500BFF8BC08BC7B
:1007C8009E467047F8B500BFF8BC08BC9E46704707
:0407D800BD01000857
:0407DC009901000877
:1007E00010E000E001000000100000000024F40010
:0400000508000725C3
:00000001FF
